:100000000C942A000C9434000C9434000C943400AA
:100010000C9434000C9434000C9434000C94340090
:100020000C9434000C9434000C9434000C94340080
:100030000C9434000C9434000C9434000C94340070
:100040000C9434000C9434000C9434000C94340060
:100050000C94340011241FBECFE5D8E0DEBFCDBF25
:100060000E9442020C9457020C94000087E08ABB65
:1000700017BA14BA8FEF81BB1BBA18BA15BA12BAE5
:100080000895843008F07DC0423008F07AC0813095
:1000900029F1813038F0823009F43CC0833009F016
:1000A00072C053C0442371F0413009F06CC02AB3D0
:1000B00081E090E002C0880F991F6A95E2F7282B33
:1000C0002ABB5DC02AB381E090E002C0880F991F6F
:1000D0006A95E2F7809582238ABB51C0442371F070
:1000E000413009F050C027B381E090E002C0880F92
:1000F000991F6A95E2F7282B27BB41C027B381E0FF
:1001000090E002C0880F991F6A95E2F780958223DC
:1001100087BB35C0442369F04130A9F524B381E0A1
:1001200090E002C0880F991F6A95E2F7282B24BB44
:1001300026C024B381E090E002C0880F991F6A9521
:10014000E2F78095822384BB1AC0442369F04130D2
:10015000D1F421B381E090E002C0880F991F6A9525
:10016000E2F7282B21BB0BC021B381E090E002C055
:10017000880F991F6A95E2F78095822381BB81E001
:10018000089580E0089581E00895683008F07AC00D
:10019000813029F1813038F0823009F43CC083305D
:1001A00009F070C053C0442371F0413009F06AC0B7
:1001B0002BB381E090E002C0880F991F6A95E2F7A7
:1001C000282B2BBB5DC02BB381E090E002C0880FD1
:1001D000991F6A95E2F7809582238BBB51C0442317
:1001E00071F0413009F04EC028B381E090E002C0C8
:1001F000880F991F6A95E2F7282B28BB41C028B3C6
:1002000081E090E002C0880F991F6A95E2F780951F
:10021000822388BB35C0442369F0413099F525B36A
:1002200081E090E002C0880F991F6A95E2F7282BC1
:1002300025BB26C025B381E090E002C0880F991F3E
:100240006A95E2F78095822385BB1AC0442369F042
:100250004130C1F422B381E090E002C0880F991FC1
:100260006A95E2F7282B22BB0BC022B381E090E015
:1002700002C0880F991F6A95E2F78095822382BB9E
:1002800081E0089580E00895282FFA01843060F518
:10029000683050F54115510539F1813049F0813010
:1002A00028F0823081F08330D1F40FC089B30EC0C2
:1002B00086B390E002C0959587956A95E2F780FF36
:1002C0000DC020830CC083B301C080B390E002C096
:1002D000959587956A95E2F780FD03C0108281E0CD
:1002E000089581E08083089580E00895623070F57C
:1002F000813081F0813028F08230A9F0833031F5EF
:100300001BC0662329F0613019F58FEF8ABB1CC032
:100310001ABA1AC0662329F06130D1F48FEF87BB77
:1003200013C017BA11C0662329F0613089F48FEF2A
:1003300084BB0AC014BA08C0662329F0613041F4B6
:100340008FEF81BB01C011BA81E0089580E008956C
:1003500081E00895813051F0813030F0823041F0F9
:10036000833049F080E008956BBB03C068BB01C0D7
:1003700065BB81E0089562BB81E00895FB016115D2
:10038000710599F0813049F0813028F0823039F0E0
:10039000833059F406C089B305C086B303C083B364
:1003A00001C080B3808381E0089580E008951F93A9
:1003B000182F80E060E041E00E94C50080E061E02D
:1003C00040E00E94C50083E0612F0E94AA0180E006
:1003D00062E041E00E94C50081E08A95F1F780E08B
:1003E00062E040E00E94C5001F9108951F93182FFE
:1003F00080E060E040E00E94C50080E061E040E015
:100400000E94C50083E0612F0E94AA0180E062E0A3
:1004100041E00E94C50081E08A95F1F780E062E04A
:1004200040E00E94C5001F910895883260F4813039
:1004300019F0823041F403C0862F805802C0862F05
:1004400080540E94F60181E008951F938EE292E2AB
:100450000197F1F788E30E94F6011DE0812F8A954C
:10046000F1F78FE00E94F6011A95F1F781E00E9402
:10047000F60182EE94E00197F1F786E00E94F60122
:100480001F9108950E9436000E94250281E065E0D8
:100490000E9415028DE60E94D70189E60E94D701CD
:1004A0008EE60E94D70181E60E94D701FFCFF89423
:0204B000FFCF7C
:00000001FF
